:020000001628C0
:0E0006008312031327088A00260882000800D0
:1000140003208A110A128000840AA60A0319A70A77
:08002400F003031D0A28080087
:10002C0083120313A001A101A201A301A401A50144
:10003C00073083169F003030870001308500860121
:10004C0088010F308312870086018801071A422924
:10005C0088010230A4000030A50080302506F00095
:10006C0080307002031D3C2800302402031CB5288C
:10007C00240886000930A2000030A300803023063B
:10008C00F00080307002031D4D2800302202031C4A
:10009C00AC2800302506031D552802302406031D0C
:1000AC0063288030F000803023067002031D602826
:1000BC002208033C03186328A7280430F100220807
:1000CC00F000710803196E28F00D7010FF3E6828BF
:1000DC0024087004860000302506031D77280230A2
:1000EC002406031D832800302306031D7F280330BC
:1000FC002206031D83280815881500302506031DCC
:10010C00892800302406031D952800302306031D82
:10011C00912803302206031D9528081188140B30F2
:10012C00FB002630FC005D30FD00FD0B9B28FC0B1A
:10013C009B28FB0B9B2800000000071EA7288801AA
:10014C00AC280130A202031CA3034428071EB028CC
:10015C008801B5280130A402031CA5033328013003
:10016C00A4000030A50080302506F000803070021D
:10017C00031DC22800302402031C4129071EC82875
:10018C0088014129240886000930A2000030A30010
:10019C0080302306F00080307002031DD728003019
:1001AC002202031C382900302506031DDF280130EC
:1001BC002406031DED288030F000803023067002E9
:1001CC00031DEA282208053C0318ED2833290430C6
:1001DC00F1002208F00071080319F828F00D7010D6
:1001EC00FF3EF22824087004860000302506031D0B
:1001FC00012901302406031D0F2900302306031D9D
:10020C00092905302206031D0F29881088110816AC
:10021C00081400302506031D152901302406031D82
:10022C00212900302306031D1D2902302206031D3F
:10023C002129081288160B30FB002630FC005D309B
:10024C00FD00FD0B2729FC0B2729FB0B27290000A0
:10025C000000071E3329880138290130A202031C33
:10026C00A303CE28071E3C29880141290130A40292
:10027C00031CA503B928F4298601871A9D29881225
:10028C000810081688140330A0000030A10080303C
:10029C002106F00080307002031D56290030200228
:1002AC00031C922900302106031D5E290030200614
:1002BC00031D6E290430F1002008F00071080319A9
:1002CC006B29F00D7010FF3E65297008860092298D
:1002DC000430F1002008F000710803197929F00DA1
:1002EC007010FF3E7329700886000B30FB0026301F
:1002FC00FC005D30FD00FD0B8129FC0B8129FB0B03
:10030C00812900000000071A8D29880192290130EB
:10031C00A002031CA1034D298601081288100815A0
:10032C008815871A9C29071E9C299729F4290811DE
:10033C008811081688140330A0000030A10080300A
:10034C002106F00080307002031DAE29003020021F
:10035C00031CEA2900302106031DB62900302006B3
:10036C00031DC6290430F1002008F00071080319A0
:10037C00C329F00D7010FF3EBD2970088600EA29D4
:10038C000430F1002008F00071080319D129F00D98
:10039C007010FF3ECB29700886000B30FB00263016
:1003AC00FC005D30FD00FD0BD929FC0BD929FB0BA2
:1003BC00D92900000000071AE5298801EA29013033
:1003CC00A002031CA103A529860108128810881617
:1003DC000814871EF429071EF429EF292C28F52967
:02400E004A2F37
:00000001FF
